:100000000C942A000C9434000C9434000C943400AA
:100010000C9434000C9434000C9434000C94340090
:100020000C9434000C9434000C9434000C94340080
:100030000C9434000C9434000C9434000C94340070
:100040000C9434000C9434000C9434000C94340060
:100050000C94340011241FBECFE5D8E0DEBFCDBF25
:100060000E9436000C9490000C940000DF93CF9314
:10007000CDB7DEB7AAE3B0E0EAE3F0E080818360C9
:100080008C93A7E3B0E0E7E3F0E08081887F8C9376
:10009000A8E3B0E0E8E3F0E0808187608C93E6E3DA
:1000A000F0E08081882F90E081709070009741F49B
:1000B000ABE3B0E0EBE3F0E0808181608C9307C0BC
:1000C000ABE3B0E0EBE3F0E080818E7F8C93E6E37E
:1000D000F0E08081882F90E082709070009741F46A
:1000E000ABE3B0E0EBE3F0E0808182608C9307C08B
:1000F000ABE3B0E0EBE3F0E080818D7F8C93E6E34F
:10010000F0E08081882F90E084709070009739F63D
:10011000ABE3B0E0EBE3F0E0808183608C93BFCF92
:04012000F894FFCF81
:00000001FF
